:1000000029C0000037C0000035C0000033C0000028
:1000100031C000002FC000002DC000002BC0000028
:1000200029C0000027C0000025C0000023C0000038
:1000300021C000001FC000001DC000001BC0000048
:1000400019C0000017C0000015C0000013C0000058
:1000500011C0000011241FBECFE5D8E0DEBFCDBF28
:1000600020E0A0E6B0E001C01D92A036B207E1F7A3
:1000700080D0A3C1C5CF813089F028F08230C9F08B
:10008000833011F12CC04F3F21F48AB3682B6ABB37
:1000900008958AB3609568236ABB08954F3F21F4A1
:1000A00087B3682B67BB089587B36095682367BBE8
:1000B00008954F3F21F484B3682B64BB089584B343
:1000C0006095682364BB08954F3F21F481B3682B8A
:1000D00061BB089581B36095682361BB08954F3F6C
:1000E00021F48AB3682B6ABB08958AB360956823AC
:1000F0006ABB0895813089F028F08230C9F08330DE
:1001000011F12CC04F3F21F48BB3682B6BBB0895CA
:100110008BB3609568236BBB08954F3F21F488B380
:10012000682B68BB089588B36095682368BB089501
:100130004F3F21F485B3682B65BB089585B3609567
:10014000682365BB08954F3F21F482B3682B62BBDF
:10015000089582B36095682362BB08954F3F21F4F0
:100160008BB3682B6BBB08958BB3609568236BBB17
:100170000895E2D080E090E00895882319F081305E
:1001800051F008954FEF6FE081E075DF4FEF64E0CD
:1001900083E071CF08954FEF6FE081E06CDF4FEFA8
:1001A00068E083E068CF0895882319F0813031F04A
:1001B00008954FEF64E083E09DCF08954FEF68E02E
:1001C00083E098CF0895882319F0813031F00895A5
:1001D00040E064E083E08ECF089540E068E083E093
:1001E00089CF0895CF93C62F40E06FE081E082DF92
:1001F0004FEF6C2F81E07EDFCF910895AB01BC0102
:10020000411551056105710571F408950197F1F7E4
:100210002F5F3F4FC901A0E0B0E084179507A60704
:10022000B70718F0089520E030E088EE93E0EECFB5
:10023000CF93DF93EC018D81803811F46F9A04C065
:10024000811102C08DB18DB98E81803211F46D9A09
:1002500004C0811102C08DB18DB98881803171F5E2
:100260006C9A8981813049F028F0823041F08330E6
:1002700041F00AC08DB18DB907C0689A05C0699A6E
:1002800003C08DB183608DB98B81813011F4709A78
:1002900004C0811102C08EB18EB940E060E481E0FB
:1002A000EADE4FEF60E281E0E6DE4FEF60E881E0FA
:1002B000E2DE4FEF60E181E0DEDE14C0811112C0AA
:1002C0008DB18DB94FEF60E481E0D5DE40E060E2B2
:1002D00081E0D1DE40E060E881E0CDDE40E060E139
:1002E00081E0C9DE8C81811103C08DB18DB903C05D
:1002F000883009F46B9A8F81811103C08DB18DB95B
:1003000003C0843009F46A9A8A81803411F46E9AA9
:1003100004C0811102C08DB18DB9DF91CF910895D4
:10032000CF93C82F40E060E181E0E4DECFB9779B56
:10033000FECF8FB1CF910895CF93DF93CDB7DEB7C6
:1003400028970FB6F894DEBF0FBECDBF19821E826C
:1003500081E08A831C8280E48B831D8280E28F830C
:100360001886CE01019664DF80E007DF81E005DFBB
:1003700010E080E0D5DF843179F4612F80E032DF56
:1003800080E012DF1F5F68EE73E080E090E036DF10
:10039000193079F710E0EDCF612F81E023DF81E0A4
:1003A00003DF80E010DF1F5F68EE73E080E090E025
:0E03B00025DF1930F1F610E0DCCFF894FFCF16
:00000001FF
