:1000000029C0000037C0000035C0000033C0000028
:1000100031C000002FC000002DC000002BC0000028
:1000200029C0000027C0000025C0000023C0000038
:1000300021C000001FC000001DC000001BC0000048
:1000400019C0000017C0000015C0000013C0000058
:1000500011C0000011241FBECFE5D8E0DEBFCDBF28
:1000600020E0A0E6B0E001C01D92A036B207E1F7A3
:1000700002D077C0C5CF44D080E090E00895AB01B6
:10008000BC01411551056105710571F40895019791
:10009000F1F72F5F3F4FC901A0E0B0E0841795074B
:1000A000A607B70718F0089520E030E088EE93E047
:1000B000EECFFC0194858585892B8BB9958186814E
:1000C000892B9781892B9085892B9185892B928506
:1000D000892B9385892B8AB990818181892B8068AE
:1000E0009281892B9381892B9481892B80BD87856F
:1000F00080BD868589B908955D9BFECF8CB9089532
:10010000CF93DF93CDB7DEB760970FB6F894DEBF1D
:100110000FBECDBF86E08D831C8282E08D871A8260
:100120001B8280E1898788E08A878FEC90E0988B3A
:100130008F87CE010196BDDF68EB7BE080E090E029
:100140009EDF80E0D9DF11E001C010E064EF71E0D4
:1001500080E090E094DF812FCFDF1F5F1F30B1F789
:06016000F4CFF894FFCF7C
:00000001FF
