S010000075617274746573742E7372656398
S113000029C0000037C0000035C000004DC2000008
S113001031C000002FC000002DC000002BC0000024
S113002029C0000027C000009BC0000023C00000BE
S113003021C000001FC000001DC000001BC0000044
S113004019C0000017C0000015C0000013C0000054
S113005011C0000011241FBECFE5D8E0DEBFCDBF24
S113006020E0A0E6B0E001C01D92A236B207E1F79D
S113007088D076C2C5CF813089F028F08230C9F0AB
S1130080833011F10895411105C08AB36095682346
S11300906ABB08958AB3682B6ABB0895411105C0F1
S11300A087B36095682367BB089587B3682B67BBE4
S11300B00895411105C084B36095682364BB089515
S11300C084B3682B64BB0895411105C081B3609566
S11300D0682361BB089581B3682B61BB08958130A7
S11300E071F028F0823099F08330C9F008958BB311
S11300F0609568236BBB8BB3482B4BBB089588B3C7
S11301006095682368BB88B3482B48BB089585B3C2
S11301106095682365BB85B3482B45BB089582B3BE
S11301206095682362BB82B3482B42BB089581303B
S113013049F028F0823049F0833051F00BC099B374
S1130140962308C096B3962305C093B3962302C0A2
S113015090B3962381E0911101C080E081950895C8
S11301601F920F920FB60F9211248F93809160000B
S11301708F5F809360008F910F900FBE0F901F9040
S11301801895A3D180E090E008958230A9F028F476
S1130190882341F0813059F00895833091F0843000
S11301A0A9F0089540E060E182E065CF089540E061
S11301B064E081E060CF089540E064E080E05BCFDC
S11301C0089540E068E080E056CF089540E064E0A0
S11301D083E051CF0895823009F437C028F488238E
S11301E051F08130E9F06CC0833009F443C08430AD
S11301F009F453C065C060E182E099DF882309F403
S113020061C062E370E080E090E070D060E182E081
S11302108EDF882309F458C060E182E088CF089516
S113022064E081E084DF882309F450C06EE170E06B
S113023080E090E05BD064E081E079DF882309F41A
S113024047C064E081E073CF089564E080E06FDF2D
S1130250882309F43FC06EE170E080E090E046D06E
S113026064E080E064DF882309F436C064E080E061
S11302705ECF089568E080E05ADF882379F16EE16B
S113028070E080E090E032D068E080E050DF8823C6
S113029039F168E080E04BCF089564E083E047DF04
S11302A0882301F16EE170E080E090E01FD064E00B
S11302B083E03DDF8823C1F064E083E038CF089514
S11302C080E0089580E0089580E0089580E0089536
S11302D080E0089580E0089580E0089580E0089526
S11302E080E0089580E0089580E00895AB01BC01AA
S11302F0411551056105710571F408950197F1F7F0
S11303002F5F3F4FC901A0E0B0E084179507A6070F
S1130310B70718F0089520E030E088EE93E0EECFC0
S1130320CF93DF93EC018D81803811F46F9A04C070
S1130330811102C08DB18DB98E81803211F46D9A14
S113034004C0811102C08DB18DB98881803171F5ED
S11303506C9A8981813049F028F0823041F08330F1
S113036041F00AC08DB18DB907C0689A05C0699A79
S113037003C08DB183608DB98B81813011F4709A83
S113038004C0811102C08EB18EB940E060E481E006
S113039072DE4FEF60E281E06EDE4FEF60E881E0F5
S11303A06ADE4FEF60E181E066DE14C0811112C0A5
S11303B08DB18DB94FEF60E481E05DDE40E060E235
S11303C081E059DE40E060E881E055DE40E060E134
S11303D081E051DE8C81811103C08DB18DB903C0E0
S11303E0883009F46B9A8F81811103C08DB18DB966
S11303F003C0843009F46A9A8A81803411F46E9AB5
S113040004C0811102C08DB18DB9DF91CF910895DF
S1130410CF93C82F40E060E181E061DECFB9779BE4
S1130420FECF8FB1CF910895EF920F93882319F0E7
S1130430883041F00DC022BFE9BE0CBF6068462B76
S113044043BF06C022BF0CBFE9BE6068462B43BF52
S11304500F91EF90089513BE0895FC01948585854E
S1130460892B8BB995818681892B9781892B9085DE
S1130470892B9185892B9285892B9385892B8AB920
S113048090818181892B80689281892B9381892B2A
S11304909481892B80BD878580BD868589B908951F
S11304A05D9BFECF8CB908951F920F920FB60F92E9
S11304B011248F93809161008150809361008F910A
S11304C00F900FBE0F901F901895CF93DF93CDB769
S11304D0DEB768970FB6F894DEBF0FBECDBF789431
S11304E086E08D831C8282E08D871A821B8280E1E4
S11304F0898788E08A878FEC90E0988B8F87CE017C
S11305000196ABDF198A1E8A81E08A8B1C8A80E4FB
S11305108B8B1D8A80E28F8B188ECE01419600DF73
S113052080E033DE81E031DE10E080916000837092
S113053011F46EDF182F80E04EDE882349F06894B2
S1130540EE24E1F80AEF20E043E060E088E06CDFAD
S113055081E041DE882349F37EDF812FA1DFE5CFEF
S1070560F894FFCF39
S9030000FC
