:1000000029C0000037C0000035C0000033C0000028
:1000100031C000002FC000002DC000002BC0000028
:1000200029C0000027C0000025C0000023C0000038
:1000300021C000001FC000001DC000001BC0000048
:1000400019C0000017C0000015C0000013C0000058
:1000500011C0000011241FBECFE5D8E0DEBFCDBF28
:1000600020E0A0E6B0E001C01D92A036B207E1F7A3
:1000700026D098C0C5CF813041F028F0823039F0C9
:10008000833039F008C06ABB089567BB089564BB2C
:10009000089561BB08956ABB0895813041F028F04E
:1000A000823039F0833039F008C06BBB089568BBEB
:1000B000089565BB089562BB08956BBB089544D055
:1000C00080E090E00895AB01BC0141155105610548
:1000D000710571F408950197F1F72F5F3F4FC90142
:1000E000A0E0B0E084179507A607B70718F00895B9
:1000F00020E030E088EE93E0EECFFC01948585852A
:10010000892B8BB995818681892B9781892B908545
:10011000892B9185892B9285892B9385892B8AB987
:1001200090818181892B80689281892B9381892B91
:100130009481892B80BD878580BD868589B9089586
:100140005F9BFECF8CB10895CF93DF93CDB7DEB721
:1001500060970FB6F894DEBF0FBECDBF6FEF81E0A2
:100160008ADF60E081E099DF86E08D831C8282E097
:100170008D871A821B8280E1898788E08A878FECCD
:1001800090E0988B8F87CE010196B7DFD9DF682F7B
:100190006295607F81E081DF64EF71E080E090E054
:0801A00092DFF4CFF894FFCFC9
:00000001FF
